{
  "contractName": "LoyaltyDataManager",
  "abi": [
    {
      "inputs": [
        {
          "internalType": "address",
          "name": "ERC20Address",
          "type": "address"
        }
      ],
      "stateMutability": "nonpayable",
      "type": "constructor"
    },
    {
      "anonymous": false,
      "inputs": [
        {
          "indexed": false,
          "internalType": "address",
          "name": "cutomer",
          "type": "address"
        },
        {
          "indexed": false,
          "internalType": "uint256",
          "name": "tokensRedeemed",
          "type": "uint256"
        },
        {
          "indexed": false,
          "internalType": "uint256",
          "name": "rule",
          "type": "uint256"
        },
        {
          "indexed": false,
          "internalType": "uint256",
          "name": "deduction",
          "type": "uint256"
        },
        {
          "indexed": false,
          "internalType": "uint256",
          "name": "balance",
          "type": "uint256"
        }
      ],
      "name": "TokenRedeem",
      "type": "event"
    },
    {
      "anonymous": false,
      "inputs": [
        {
          "indexed": false,
          "internalType": "string",
          "name": "cutomer",
          "type": "string"
        },
        {
          "indexed": false,
          "internalType": "uint256",
          "name": "tokenCount",
          "type": "uint256"
        },
        {
          "indexed": false,
          "internalType": "uint256",
          "name": "amount",
          "type": "uint256"
        }
      ],
      "name": "TokenReward",
      "type": "event"
    },
    {
      "inputs": [],
      "name": "_token",
      "outputs": [
        {
          "internalType": "contract IERC20",
          "name": "",
          "type": "address"
        }
      ],
      "stateMutability": "view",
      "type": "function",
      "constant": true
    },
    {
      "inputs": [],
      "name": "totalTokenAwarded",
      "outputs": [
        {
          "internalType": "uint256",
          "name": "",
          "type": "uint256"
        }
      ],
      "stateMutability": "view",
      "type": "function",
      "constant": true
    },
    {
      "inputs": [],
      "name": "totalTokenRedemtion",
      "outputs": [
        {
          "internalType": "uint256",
          "name": "",
          "type": "uint256"
        }
      ],
      "stateMutability": "view",
      "type": "function",
      "constant": true
    },
    {
      "inputs": [],
      "name": "totalTransactions",
      "outputs": [
        {
          "internalType": "uint256",
          "name": "",
          "type": "uint256"
        }
      ],
      "stateMutability": "view",
      "type": "function",
      "constant": true
    },
    {
      "inputs": [
        {
          "internalType": "string",
          "name": "key",
          "type": "string"
        }
      ],
      "name": "isCustomerExits",
      "outputs": [
        {
          "internalType": "bool",
          "name": "",
          "type": "bool"
        }
      ],
      "stateMutability": "view",
      "type": "function",
      "constant": true
    },
    {
      "inputs": [],
      "name": "getOwner",
      "outputs": [
        {
          "internalType": "address",
          "name": "",
          "type": "address"
        }
      ],
      "stateMutability": "view",
      "type": "function",
      "constant": true
    },
    {
      "inputs": [],
      "name": "getTokenTxDetails",
      "outputs": [
        {
          "internalType": "uint256",
          "name": "",
          "type": "uint256"
        },
        {
          "internalType": "uint256",
          "name": "",
          "type": "uint256"
        }
      ],
      "stateMutability": "view",
      "type": "function",
      "constant": true
    },
    {
      "inputs": [
        {
          "internalType": "string",
          "name": "userName",
          "type": "string"
        }
      ],
      "name": "registerCustomer",
      "outputs": [
        {
          "internalType": "bool",
          "name": "",
          "type": "bool"
        }
      ],
      "stateMutability": "nonpayable",
      "type": "function"
    },
    {
      "inputs": [
        {
          "internalType": "string",
          "name": "userName",
          "type": "string"
        }
      ],
      "name": "removeCustomer",
      "outputs": [
        {
          "internalType": "bool",
          "name": "",
          "type": "bool"
        }
      ],
      "stateMutability": "nonpayable",
      "type": "function"
    },
    {
      "inputs": [
        {
          "internalType": "string",
          "name": "userName",
          "type": "string"
        },
        {
          "internalType": "uint256",
          "name": "count",
          "type": "uint256"
        }
      ],
      "name": "awardLoyaltyToken",
      "outputs": [
        {
          "internalType": "bool",
          "name": "",
          "type": "bool"
        }
      ],
      "stateMutability": "nonpayable",
      "type": "function"
    },
    {
      "inputs": [
        {
          "internalType": "string",
          "name": "userName",
          "type": "string"
        }
      ],
      "name": "getCustomerDetails",
      "outputs": [
        {
          "internalType": "string",
          "name": "",
          "type": "string"
        },
        {
          "internalType": "uint256",
          "name": "",
          "type": "uint256"
        },
        {
          "internalType": "uint256",
          "name": "",
          "type": "uint256"
        },
        {
          "internalType": "uint256",
          "name": "",
          "type": "uint256"
        }
      ],
      "stateMutability": "view",
      "type": "function",
      "constant": true
    },
    {
      "inputs": [
        {
          "internalType": "uint256",
          "name": "dollarAmt",
          "type": "uint256"
        },
        {
          "internalType": "uint256",
          "name": "rate",
          "type": "uint256"
        }
      ],
      "name": "addRule",
      "outputs": [
        {
          "internalType": "bool",
          "name": "",
          "type": "bool"
        }
      ],
      "stateMutability": "nonpayable",
      "type": "function"
    },
    {
      "inputs": [
        {
          "internalType": "string",
          "name": "userName",
          "type": "string"
        },
        {
          "internalType": "uint256",
          "name": "ruleId",
          "type": "uint256"
        },
        {
          "internalType": "uint256",
          "name": "trxAmt",
          "type": "uint256"
        }
      ],
      "name": "applyAwardRule",
      "outputs": [
        {
          "internalType": "uint256",
          "name": "",
          "type": "uint256"
        }
      ],
      "stateMutability": "nonpayable",
      "type": "function"
    },
    {
      "inputs": [
        {
          "internalType": "uint256",
          "name": "numerator",
          "type": "uint256"
        },
        {
          "internalType": "uint256",
          "name": "denominator",
          "type": "uint256"
        }
      ],
      "name": "getDivided",
      "outputs": [
        {
          "internalType": "uint256",
          "name": "quotient",
          "type": "uint256"
        },
        {
          "internalType": "uint256",
          "name": "remainder",
          "type": "uint256"
        }
      ],
      "stateMutability": "pure",
      "type": "function",
      "constant": true
    }
  ],
  "bytecode": "0x60806040523480156200001157600080fd5b506040516200193f3803806200193f83398181016040528101906200003791906200012a565b80600260006101000a81548173ffffffffffffffffffffffffffffffffffffffff021916908373ffffffffffffffffffffffffffffffffffffffff16021790555033600360006101000a81548173ffffffffffffffffffffffffffffffffffffffff021916908373ffffffffffffffffffffffffffffffffffffffff160217905550506200015c565b600080fd5b600073ffffffffffffffffffffffffffffffffffffffff82169050919050565b6000620000f282620000c5565b9050919050565b6200010481620000e5565b81146200011057600080fd5b50565b6000815190506200012481620000f9565b92915050565b600060208284031215620001435762000142620000c0565b5b6000620001538482850162000113565b91505092915050565b6117d3806200016c6000396000f3fe608060405234801561001057600080fd5b50600436106100ea5760003560e01c8063b9a600381161008c578063ccfb3a4b11610066578063ccfb3a4b1461028c578063db1de95c146102aa578063ecd0c0c3146102da578063fc55ea9d146102f8576100ea565b8063b9a600381461020b578063bd7cdf9f14610229578063c91e74e314610259576100ea565b80635f9e970d116100c85780635f9e970d14610180578063893d20e81461019e57806398d6c40e146101bc578063afe74fad146101ec576100ea565b80631378d806146100ef57806313795d071461011f578063194d02d71461014f575b600080fd5b61010960048036038101906101049190610f82565b610328565b6040516101169190610fe6565b60405180910390f35b61013960048036038101906101349190611037565b6104db565b6040516101469190610fe6565b60405180910390f35b61016960048036038101906101649190611037565b61060b565b604051610177929190611086565b60405180910390f35b610188610643565b60405161019591906110af565b60405180910390f35b6101a6610649565b6040516101b3919061110b565b60405180910390f35b6101d660048036038101906101d19190611126565b610651565b6040516101e391906110af565b60405180910390f35b6101f46108ad565b604051610202929190611086565b60405180910390f35b6102136108be565b60405161022091906110af565b60405180910390f35b610243600480360381019061023e9190610f82565b6108c4565b6040516102509190610fe6565b60405180910390f35b610273600480360381019061026e9190610f82565b61090d565b604051610283949392919061121d565b60405180910390f35b610294610a53565b6040516102a191906110af565b60405180910390f35b6102c460048036038101906102bf9190611269565b610a59565b6040516102d19190610fe6565b60405180910390f35b6102e2610bb6565b6040516102ef9190611324565b60405180910390f35b610312600480360381019061030d9190610f82565b610bdc565b60405161031f9190610fe6565b60405180910390f35b60003373ffffffffffffffffffffffffffffffffffffffff16600360009054906101000a900473ffffffffffffffffffffffffffffffffffffffff1673ffffffffffffffffffffffffffffffffffffffff16146103ba576040517f08c379a00000000000000000000000000000000000000000000000000000000081526004016103b19061138b565b60405180910390fd5b6004826040516103ca91906113e7565b908152602001604051809103902060040160009054906101000a900460ff1615610429576040517f08c379a00000000000000000000000000000000000000000000000000000000081526004016104209061144a565b60405180910390fd5b6040518060a001604052808381526020016000815260200160008152602001600081526020016001151581525060048360405161046691906113e7565b90815260200160405180910390206000820151816000019080519060200190610490929190610d85565b5060208201518160010155604082015181600201556060820151816003015560808201518160040160006101000a81548160ff02191690831515021790555090505060019050919050565b60003373ffffffffffffffffffffffffffffffffffffffff16600360009054906101000a900473ffffffffffffffffffffffffffffffffffffffff1673ffffffffffffffffffffffffffffffffffffffff161461056d576040517f08c379a00000000000000000000000000000000000000000000000000000000081526004016105649061138b565b60405180910390fd5b6001600081548092919061058090611499565b9190505550604051806080016040528060015481526020018481526020018381526020016001151581525060056000600154815260200190815260200160002060008201518160000155602082015181600101556040820151816002015560608201518160030160006101000a81548160ff0219169083151502179055509050506001905092915050565b6000806106218385610d2590919063ffffffff16565b9150818361062f91906114e2565b8461063a919061153c565b90509250929050565b60075481565b600033905090565b60003373ffffffffffffffffffffffffffffffffffffffff16600360009054906101000a900473ffffffffffffffffffffffffffffffffffffffff1673ffffffffffffffffffffffffffffffffffffffff16146106e3576040517f08c379a00000000000000000000000000000000000000000000000000000000081526004016106da9061138b565b60405180910390fd5b6004846040516106f391906113e7565b908152602001604051809103902060040160009054906101000a900460ff16610751576040517f08c379a0000000000000000000000000000000000000000000000000000000008152600401610748906115bc565b60405180910390fd5b6005600084815260200190815260200160002060030160009054906101000a900460ff166107b4576040517f08c379a00000000000000000000000000000000000000000000000000000000081526004016107ab90611628565b60405180910390fd5b600060056000858152602001908152602001600020905060006107e08260010154836002015486610d3b565b905060006004876040516107f491906113e7565b908152602001604051809103902090508181600101546108149190611648565b816001018190555081816003015461082c9190611648565b81600301819055506006600081548092919061084790611499565b9190505550816007600082825461085e9190611648565b925050819055507fd10e8f0b3f726c6df206d74d973f862fcec694eed3281a02603d75763c5802058783876040516108989392919061169e565b60405180910390a18193505050509392505050565b600080600754600854915091509091565b60065481565b60006004826040516108d691906113e7565b908152602001604051809103902060040160009054906101000a900460ff16156109035760019050610908565b600090505b919050565b6060600080600060048560405161092491906113e7565b908152602001604051809103902060040160009054906101000a900460ff16610982576040517f08c379a0000000000000000000000000000000000000000000000000000000008152600401610979906115bc565b60405180910390fd5b600060048660405161099491906113e7565b90815260200160405180910390209050806000018160010154826002015483600301548380546109c39061170b565b80601f01602080910402602001604051908101604052809291908181526020018280546109ef9061170b565b8015610a3c5780601f10610a1157610100808354040283529160200191610a3c565b820191906000526020600020905b815481529060010190602001808311610a1f57829003601f168201915b505050505093509450945094509450509193509193565b60085481565b60003373ffffffffffffffffffffffffffffffffffffffff16600360009054906101000a900473ffffffffffffffffffffffffffffffffffffffff1673ffffffffffffffffffffffffffffffffffffffff1614610aeb576040517f08c379a0000000000000000000000000000000000000000000000000000000008152600401610ae29061138b565b60405180910390fd5b600483604051610afb91906113e7565b908152602001604051809103902060040160009054906101000a900460ff16610b59576040517f08c379a0000000000000000000000000000000000000000000000000000000008152600401610b50906115bc565b60405180910390fd5b6000600484604051610b6b91906113e7565b90815260200160405180910390209050828160010154610b8b9190611648565b8160010181905550828160030154610ba39190611648565b8160030181905550600191505092915050565b600260009054906101000a900473ffffffffffffffffffffffffffffffffffffffff1681565b60003373ffffffffffffffffffffffffffffffffffffffff16600360009054906101000a900473ffffffffffffffffffffffffffffffffffffffff1673ffffffffffffffffffffffffffffffffffffffff1614610c6e576040517f08c379a0000000000000000000000000000000000000000000000000000000008152600401610c659061138b565b60405180910390fd5b600482604051610c7e91906113e7565b908152602001604051809103902060040160009054906101000a900460ff16610cdc576040517f08c379a0000000000000000000000000000000000000000000000000000000008152600401610cd3906115bc565b60405180910390fd5b6000600483604051610cee91906113e7565b9081526020016040518091039020905060008160040160006101000a81548160ff0219169083151502179055506001915050919050565b60008183610d33919061176c565b905092915050565b6000806000610d4a848761060b565b91509150600080831115610d67578583610d6491906114e2565b90505b60008282610d759190611648565b9050809450505050509392505050565b828054610d919061170b565b90600052602060002090601f016020900481019282610db35760008555610dfa565b82601f10610dcc57805160ff1916838001178555610dfa565b82800160010185558215610dfa579182015b82811115610df9578251825591602001919060010190610dde565b5b509050610e079190610e0b565b5090565b5b80821115610e24576000816000905550600101610e0c565b5090565b6000604051905090565b600080fd5b600080fd5b600080fd5b600080fd5b6000601f19601f8301169050919050565b7f4e487b7100000000000000000000000000000000000000000000000000000000600052604160045260246000fd5b610e8f82610e46565b810181811067ffffffffffffffff82111715610eae57610ead610e57565b5b80604052505050565b6000610ec1610e28565b9050610ecd8282610e86565b919050565b600067ffffffffffffffff821115610eed57610eec610e57565b5b610ef682610e46565b9050602081019050919050565b82818337600083830152505050565b6000610f25610f2084610ed2565b610eb7565b905082815260208101848484011115610f4157610f40610e41565b5b610f4c848285610f03565b509392505050565b600082601f830112610f6957610f68610e3c565b5b8135610f79848260208601610f12565b91505092915050565b600060208284031215610f9857610f97610e32565b5b600082013567ffffffffffffffff811115610fb657610fb5610e37565b5b610fc284828501610f54565b91505092915050565b60008115159050919050565b610fe081610fcb565b82525050565b6000602082019050610ffb6000830184610fd7565b92915050565b6000819050919050565b61101481611001565b811461101f57600080fd5b50565b6000813590506110318161100b565b92915050565b6000806040838503121561104e5761104d610e32565b5b600061105c85828601611022565b925050602061106d85828601611022565b9150509250929050565b61108081611001565b82525050565b600060408201905061109b6000830185611077565b6110a86020830184611077565b9392505050565b60006020820190506110c46000830184611077565b92915050565b600073ffffffffffffffffffffffffffffffffffffffff82169050919050565b60006110f5826110ca565b9050919050565b611105816110ea565b82525050565b600060208201905061112060008301846110fc565b92915050565b60008060006060848603121561113f5761113e610e32565b5b600084013567ffffffffffffffff81111561115d5761115c610e37565b5b61116986828701610f54565b935050602061117a86828701611022565b925050604061118b86828701611022565b9150509250925092565b600081519050919050565b600082825260208201905092915050565b60005b838110156111cf5780820151818401526020810190506111b4565b838111156111de576000848401525b50505050565b60006111ef82611195565b6111f981856111a0565b93506112098185602086016111b1565b61121281610e46565b840191505092915050565b6000608082019050818103600083015261123781876111e4565b90506112466020830186611077565b6112536040830185611077565b6112606060830184611077565b95945050505050565b600080604083850312156112805761127f610e32565b5b600083013567ffffffffffffffff81111561129e5761129d610e37565b5b6112aa85828601610f54565b92505060206112bb85828601611022565b9150509250929050565b6000819050919050565b60006112ea6112e56112e0846110ca565b6112c5565b6110ca565b9050919050565b60006112fc826112cf565b9050919050565b600061130e826112f1565b9050919050565b61131e81611303565b82525050565b60006020820190506113396000830184611315565b92915050565b7f43616c6c6572206973206e6f74206f776e657200000000000000000000000000600082015250565b60006113756013836111a0565b91506113808261133f565b602082019050919050565b600060208201905081810360008301526113a481611368565b9050919050565b600081905092915050565b60006113c182611195565b6113cb81856113ab565b93506113db8185602086016111b1565b80840191505092915050565b60006113f382846113b6565b915081905092915050565b7f416c726561647920657869747321000000000000000000000000000000000000600082015250565b6000611434600e836111a0565b915061143f826113fe565b602082019050919050565b6000602082019050818103600083015261146381611427565b9050919050565b7f4e487b7100000000000000000000000000000000000000000000000000000000600052601160045260246000fd5b60006114a482611001565b91507fffffffffffffffffffffffffffffffffffffffffffffffffffffffffffffffff8214156114d7576114d661146a565b5b600182019050919050565b60006114ed82611001565b91506114f883611001565b9250817fffffffffffffffffffffffffffffffffffffffffffffffffffffffffffffffff04831182151516156115315761153061146a565b5b828202905092915050565b600061154782611001565b915061155283611001565b9250828210156115655761156461146a565b5b828203905092915050565b7f437573746f6d657220646f6573206e6f74206578697473210000000000000000600082015250565b60006115a66018836111a0565b91506115b182611570565b602082019050919050565b600060208201905081810360008301526115d581611599565b9050919050565b7f52756c6520646f6573206e6f7420657869747321000000000000000000000000600082015250565b60006116126014836111a0565b915061161d826115dc565b602082019050919050565b6000602082019050818103600083015261164181611605565b9050919050565b600061165382611001565b915061165e83611001565b9250827fffffffffffffffffffffffffffffffffffffffffffffffffffffffffffffffff038211156116935761169261146a565b5b828201905092915050565b600060608201905081810360008301526116b881866111e4565b90506116c76020830185611077565b6116d46040830184611077565b949350505050565b7f4e487b7100000000000000000000000000000000000000000000000000000000600052602260045260246000fd5b6000600282049050600182168061172357607f821691505b60208210811415611737576117366116dc565b5b50919050565b7f4e487b7100000000000000000000000000000000000000000000000000000000600052601260045260246000fd5b600061177782611001565b915061178283611001565b9250826117925761179161173d565b5b82820490509291505056fea26469706673582212200f667929aef1d1c7a5d51db326698da4a451409fdcbb23a9e20c6e5ae64f091364736f6c634300080a0033",
  "immutableReferences": {},
  "source": "// SPDX-License-Identifier: MIT\r\npragma solidity ^0.8.9;\r\nimport \"@openzeppelin/contracts/token/ERC20/IERC20.sol\";\r\nimport \"@openzeppelin/contracts/utils/Strings.sol\";\r\nimport \"@openzeppelin/contracts/utils/math/SafeMath.sol\";\r\n\r\ncontract LoyaltyDataManager {\r\n    using SafeMath for uint256;\r\n\r\n    struct User {\r\n        string userName;\r\n        uint256 awardAmount;\r\n        uint256 redeemAmount;\r\n        uint256 currentBalance;\r\n        bool isExits;\r\n    }\r\n\r\n    struct Rule {\r\n        uint256 id;\r\n        uint256 dollarAmt;\r\n        uint256 tokenRate;\r\n        bool active;\r\n    }\r\n\r\n    uint256 private custCount;\r\n    uint256 private ruleCount;\r\n    IERC20 public _token;\r\n    address private owner;\r\n    mapping(string => User) private customers;\r\n    mapping(uint256 => Rule) private rules;\r\n    uint256 public totalTransactions;\r\n    uint256 public totalTokenAwarded;\r\n    uint256 public totalTokenRedemtion;\r\n\r\n    event TokenReward(string cutomer, uint256 tokenCount, uint256 amount);\r\n    event TokenRedeem(\r\n        address cutomer,\r\n        uint256 tokensRedeemed,\r\n        uint256 rule,\r\n        uint256 deduction,\r\n        uint256 balance\r\n    );\r\n\r\n    /**\r\n     * @dev Set contract deployer as admin\r\n     */\r\n    constructor(address ERC20Address) {\r\n        _token = IERC20(ERC20Address);\r\n        owner = msg.sender ;\r\n    }\r\n\r\n    function isCustomerExits(string memory key) public view returns (bool) {\r\n        if (customers[key].isExits) {\r\n            return true;\r\n        } else {\r\n            return false;\r\n        }\r\n    }\r\n\r\n    function getOwner() public view returns (address) {\r\n        return msg.sender;\r\n    }\r\n\r\n    function getTokenTxDetails() public view returns (uint,uint) {\r\n        return (totalTokenAwarded,totalTokenRedemtion);\r\n    }\r\n    \r\n    \r\n    modifier onlyOwner() {\r\n        // If the first argument of 'require' evaluates to 'false', execution terminates and all\r\n        // changes to the state and to Ether balances are reverted.\r\n        // This used to consume all gas in old EVM versions, but not anymore.\r\n        // It is often a good idea to use 'require' to check if functions are called correctly.\r\n        // As a second argument, you can also provide an explanation about what went wrong.\r\n        require(owner == msg.sender, \"Caller is not owner\");\r\n        _;\r\n    }\r\n\r\n    function registerCustomer(string memory userName)\r\n        public\r\n        onlyOwner\r\n        returns (bool)\r\n    {\r\n        require(!customers[userName].isExits, \"Already exits!\");\r\n        customers[userName] = User(userName, 0, 0, 0, true);\r\n        return true;\r\n    }\r\n\r\n    function removeCustomer(string memory userName)\r\n        public\r\n        onlyOwner\r\n        returns (bool)\r\n    {\r\n        require(customers[userName].isExits, \"Customer does not exits!\");\r\n        User storage customer = customers[userName];\r\n        customer.isExits = false;\r\n        return true;\r\n    }\r\n\r\n    function awardLoyaltyToken(string memory userName, uint256 count)\r\n        public\r\n        onlyOwner\r\n        returns (bool)\r\n    {\r\n        require(customers[userName].isExits, \"Customer does not exits!\");\r\n        User storage customer = customers[userName];\r\n        customer.awardAmount = customer.awardAmount + count;\r\n        customer.currentBalance = customer.currentBalance + count;\r\n        return true;\r\n    }\r\n\r\n    function getCustomerDetails(string memory userName)\r\n        public\r\n        view\r\n        returns (\r\n            string memory,\r\n            uint256,\r\n            uint256,\r\n            uint256\r\n        )\r\n    {\r\n        require(customers[userName].isExits, \"Customer does not exits!\");\r\n        User storage customer = customers[userName];\r\n        return (\r\n            customer.userName,\r\n            customer.awardAmount,\r\n            customer.redeemAmount,\r\n            customer.currentBalance\r\n        );\r\n    }\r\n\r\n    function addRule(uint256 dollarAmt, uint256 rate)\r\n        public\r\n        onlyOwner\r\n        returns (bool)\r\n    {\r\n        ruleCount++;\r\n        rules[ruleCount] = Rule(ruleCount, dollarAmt, rate, true);\r\n        return true;\r\n    }\r\n\r\n    function applyAwardRule(\r\n        string memory userName,\r\n        uint256 ruleId,\r\n        uint256 trxAmt\r\n    ) public onlyOwner returns (uint256) {\r\n        require(customers[userName].isExits, \"Customer does not exits!\");\r\n        require(rules[ruleId].active, \"Rule does not exits!\");\r\n        Rule storage awardRule = rules[ruleId];\r\n        uint256 totalToakens = calculateReward(\r\n            awardRule.dollarAmt,\r\n            awardRule.tokenRate,\r\n            trxAmt\r\n        );\r\n        User storage customer = customers[userName];\r\n        customer.awardAmount = customer.awardAmount + totalToakens;\r\n        customer.currentBalance = customer.currentBalance + totalToakens;\r\n        totalTransactions++;\r\n        totalTokenAwarded+= totalToakens;\r\n        emit TokenReward(userName, totalToakens, trxAmt);\r\n        return (totalToakens);\r\n    }\r\n\r\n    function getDivided(uint256 numerator, uint256 denominator)\r\n        public\r\n        pure\r\n        returns (uint256 quotient, uint256 remainder)\r\n    {\r\n        quotient = numerator.div(denominator);\r\n        remainder = numerator - (denominator * quotient);\r\n        return (quotient, remainder);\r\n    }\r\n\r\n    function calculateReward(\r\n        uint256 ruleAmount,\r\n        uint256 tokenRate,\r\n        uint256 txAmount\r\n    ) internal pure returns (uint256) {\r\n        (uint256 quotient, uint256 remainder) = getDivided(\r\n            txAmount,\r\n            ruleAmount\r\n        );\r\n        uint256 quotientToakens = 0;\r\n        if (quotient > 0) {\r\n            quotientToakens = quotient * (tokenRate);\r\n        }\r\n\r\n        uint256 totalToakens = quotientToakens + remainder;\r\n        return (totalToakens);\r\n    }\r\n}\r\n",
  "sourcePath": "D:\\nodejs-ecommerce-tut\\mern-ecommerce-v2\\Ecommerce-ProShop\\proshop_mern\\blockchain\\contracts\\LoyaltyDataManager.sol",
  "compiler": {
    "name": "solc",
    "version": "0.8.10+commit.fc410830.Emscripten.clang"
  },
  "schemaVersion": "3.4.4",
  "updatedAt": "2022-11-22T04:50:03.759Z",
  "networkType": "ethereum",
  "devdoc": {
    "kind": "dev",
    "methods": {
      "constructor": {
        "details": "Set contract deployer as admin"
      }
    },
    "version": 1
  },
  "userdoc": {
    "kind": "user",
    "methods": {},
    "version": 1
  }
}