{
  "contractName": "LoyaltyToken",
  "abi": [
    {
      "inputs": [
        {
          "internalType": "string",
          "name": "_name",
          "type": "string"
        },
        {
          "internalType": "string",
          "name": "_symbol",
          "type": "string"
        },
        {
          "internalType": "uint8",
          "name": "decimals_points",
          "type": "uint8"
        },
        {
          "internalType": "uint256",
          "name": "_initialSupply",
          "type": "uint256"
        }
      ],
      "stateMutability": "nonpayable",
      "type": "constructor"
    },
    {
      "anonymous": false,
      "inputs": [
        {
          "indexed": true,
          "internalType": "address",
          "name": "owner",
          "type": "address"
        },
        {
          "indexed": true,
          "internalType": "address",
          "name": "spender",
          "type": "address"
        },
        {
          "indexed": false,
          "internalType": "uint256",
          "name": "value",
          "type": "uint256"
        }
      ],
      "name": "Approval",
      "type": "event"
    },
    {
      "anonymous": false,
      "inputs": [
        {
          "indexed": true,
          "internalType": "address",
          "name": "previousOwner",
          "type": "address"
        },
        {
          "indexed": true,
          "internalType": "address",
          "name": "newOwner",
          "type": "address"
        }
      ],
      "name": "OwnershipTransferred",
      "type": "event"
    },
    {
      "anonymous": false,
      "inputs": [
        {
          "indexed": false,
          "internalType": "address",
          "name": "account",
          "type": "address"
        }
      ],
      "name": "Paused",
      "type": "event"
    },
    {
      "anonymous": false,
      "inputs": [
        {
          "indexed": true,
          "internalType": "bytes32",
          "name": "role",
          "type": "bytes32"
        },
        {
          "indexed": true,
          "internalType": "bytes32",
          "name": "previousAdminRole",
          "type": "bytes32"
        },
        {
          "indexed": true,
          "internalType": "bytes32",
          "name": "newAdminRole",
          "type": "bytes32"
        }
      ],
      "name": "RoleAdminChanged",
      "type": "event"
    },
    {
      "anonymous": false,
      "inputs": [
        {
          "indexed": true,
          "internalType": "bytes32",
          "name": "role",
          "type": "bytes32"
        },
        {
          "indexed": true,
          "internalType": "address",
          "name": "account",
          "type": "address"
        },
        {
          "indexed": true,
          "internalType": "address",
          "name": "sender",
          "type": "address"
        }
      ],
      "name": "RoleGranted",
      "type": "event"
    },
    {
      "anonymous": false,
      "inputs": [
        {
          "indexed": true,
          "internalType": "bytes32",
          "name": "role",
          "type": "bytes32"
        },
        {
          "indexed": true,
          "internalType": "address",
          "name": "account",
          "type": "address"
        },
        {
          "indexed": true,
          "internalType": "address",
          "name": "sender",
          "type": "address"
        }
      ],
      "name": "RoleRevoked",
      "type": "event"
    },
    {
      "anonymous": false,
      "inputs": [
        {
          "indexed": true,
          "internalType": "address",
          "name": "from",
          "type": "address"
        },
        {
          "indexed": true,
          "internalType": "address",
          "name": "to",
          "type": "address"
        },
        {
          "indexed": false,
          "internalType": "uint256",
          "name": "value",
          "type": "uint256"
        }
      ],
      "name": "Transfer",
      "type": "event"
    },
    {
      "anonymous": false,
      "inputs": [
        {
          "indexed": false,
          "internalType": "address",
          "name": "account",
          "type": "address"
        }
      ],
      "name": "Unpaused",
      "type": "event"
    },
    {
      "stateMutability": "payable",
      "type": "fallback",
      "payable": true
    },
    {
      "inputs": [],
      "name": "BURNER_ROLE",
      "outputs": [
        {
          "internalType": "bytes32",
          "name": "",
          "type": "bytes32"
        }
      ],
      "stateMutability": "view",
      "type": "function",
      "constant": true
    },
    {
      "inputs": [],
      "name": "DEFAULT_ADMIN_ROLE",
      "outputs": [
        {
          "internalType": "bytes32",
          "name": "",
          "type": "bytes32"
        }
      ],
      "stateMutability": "view",
      "type": "function",
      "constant": true
    },
    {
      "inputs": [],
      "name": "MINTER_ROLE",
      "outputs": [
        {
          "internalType": "bytes32",
          "name": "",
          "type": "bytes32"
        }
      ],
      "stateMutability": "view",
      "type": "function",
      "constant": true
    },
    {
      "inputs": [],
      "name": "PAUSER_ROLE",
      "outputs": [
        {
          "internalType": "bytes32",
          "name": "",
          "type": "bytes32"
        }
      ],
      "stateMutability": "view",
      "type": "function",
      "constant": true
    },
    {
      "inputs": [
        {
          "internalType": "address",
          "name": "owner",
          "type": "address"
        },
        {
          "internalType": "address",
          "name": "spender",
          "type": "address"
        }
      ],
      "name": "allowance",
      "outputs": [
        {
          "internalType": "uint256",
          "name": "",
          "type": "uint256"
        }
      ],
      "stateMutability": "view",
      "type": "function",
      "constant": true
    },
    {
      "inputs": [
        {
          "internalType": "address",
          "name": "spender",
          "type": "address"
        },
        {
          "internalType": "uint256",
          "name": "amount",
          "type": "uint256"
        }
      ],
      "name": "approve",
      "outputs": [
        {
          "internalType": "bool",
          "name": "",
          "type": "bool"
        }
      ],
      "stateMutability": "nonpayable",
      "type": "function"
    },
    {
      "inputs": [
        {
          "internalType": "address",
          "name": "account",
          "type": "address"
        }
      ],
      "name": "balanceOf",
      "outputs": [
        {
          "internalType": "uint256",
          "name": "",
          "type": "uint256"
        }
      ],
      "stateMutability": "view",
      "type": "function",
      "constant": true
    },
    {
      "inputs": [
        {
          "internalType": "address",
          "name": "account",
          "type": "address"
        },
        {
          "internalType": "uint256",
          "name": "amount",
          "type": "uint256"
        }
      ],
      "name": "burnFrom",
      "outputs": [],
      "stateMutability": "nonpayable",
      "type": "function"
    },
    {
      "inputs": [],
      "name": "cap",
      "outputs": [
        {
          "internalType": "uint256",
          "name": "",
          "type": "uint256"
        }
      ],
      "stateMutability": "view",
      "type": "function",
      "constant": true
    },
    {
      "inputs": [
        {
          "internalType": "address",
          "name": "spender",
          "type": "address"
        },
        {
          "internalType": "uint256",
          "name": "subtractedValue",
          "type": "uint256"
        }
      ],
      "name": "decreaseAllowance",
      "outputs": [
        {
          "internalType": "bool",
          "name": "",
          "type": "bool"
        }
      ],
      "stateMutability": "nonpayable",
      "type": "function"
    },
    {
      "inputs": [
        {
          "internalType": "bytes32",
          "name": "role",
          "type": "bytes32"
        }
      ],
      "name": "getRoleAdmin",
      "outputs": [
        {
          "internalType": "bytes32",
          "name": "",
          "type": "bytes32"
        }
      ],
      "stateMutability": "view",
      "type": "function",
      "constant": true
    },
    {
      "inputs": [
        {
          "internalType": "bytes32",
          "name": "role",
          "type": "bytes32"
        },
        {
          "internalType": "uint256",
          "name": "index",
          "type": "uint256"
        }
      ],
      "name": "getRoleMember",
      "outputs": [
        {
          "internalType": "address",
          "name": "",
          "type": "address"
        }
      ],
      "stateMutability": "view",
      "type": "function",
      "constant": true
    },
    {
      "inputs": [
        {
          "internalType": "bytes32",
          "name": "role",
          "type": "bytes32"
        }
      ],
      "name": "getRoleMemberCount",
      "outputs": [
        {
          "internalType": "uint256",
          "name": "",
          "type": "uint256"
        }
      ],
      "stateMutability": "view",
      "type": "function",
      "constant": true
    },
    {
      "inputs": [
        {
          "internalType": "bytes32",
          "name": "role",
          "type": "bytes32"
        },
        {
          "internalType": "address",
          "name": "account",
          "type": "address"
        }
      ],
      "name": "grantRole",
      "outputs": [],
      "stateMutability": "nonpayable",
      "type": "function"
    },
    {
      "inputs": [
        {
          "internalType": "bytes32",
          "name": "role",
          "type": "bytes32"
        },
        {
          "internalType": "address",
          "name": "account",
          "type": "address"
        }
      ],
      "name": "hasRole",
      "outputs": [
        {
          "internalType": "bool",
          "name": "",
          "type": "bool"
        }
      ],
      "stateMutability": "view",
      "type": "function",
      "constant": true
    },
    {
      "inputs": [
        {
          "internalType": "address",
          "name": "spender",
          "type": "address"
        },
        {
          "internalType": "uint256",
          "name": "addedValue",
          "type": "uint256"
        }
      ],
      "name": "increaseAllowance",
      "outputs": [
        {
          "internalType": "bool",
          "name": "",
          "type": "bool"
        }
      ],
      "stateMutability": "nonpayable",
      "type": "function"
    },
    {
      "inputs": [
        {
          "internalType": "address",
          "name": "to",
          "type": "address"
        },
        {
          "internalType": "uint256",
          "name": "amount",
          "type": "uint256"
        }
      ],
      "name": "mint",
      "outputs": [],
      "stateMutability": "nonpayable",
      "type": "function"
    },
    {
      "inputs": [],
      "name": "name",
      "outputs": [
        {
          "internalType": "string",
          "name": "",
          "type": "string"
        }
      ],
      "stateMutability": "view",
      "type": "function",
      "constant": true
    },
    {
      "inputs": [],
      "name": "owner",
      "outputs": [
        {
          "internalType": "address",
          "name": "",
          "type": "address"
        }
      ],
      "stateMutability": "view",
      "type": "function",
      "constant": true
    },
    {
      "inputs": [],
      "name": "pause",
      "outputs": [],
      "stateMutability": "nonpayable",
      "type": "function"
    },
    {
      "inputs": [],
      "name": "paused",
      "outputs": [
        {
          "internalType": "bool",
          "name": "",
          "type": "bool"
        }
      ],
      "stateMutability": "view",
      "type": "function",
      "constant": true
    },
    {
      "inputs": [],
      "name": "renounceOwnership",
      "outputs": [],
      "stateMutability": "nonpayable",
      "type": "function"
    },
    {
      "inputs": [
        {
          "internalType": "bytes32",
          "name": "role",
          "type": "bytes32"
        },
        {
          "internalType": "address",
          "name": "account",
          "type": "address"
        }
      ],
      "name": "renounceRole",
      "outputs": [],
      "stateMutability": "nonpayable",
      "type": "function"
    },
    {
      "inputs": [
        {
          "internalType": "bytes32",
          "name": "role",
          "type": "bytes32"
        },
        {
          "internalType": "address",
          "name": "account",
          "type": "address"
        }
      ],
      "name": "revokeRole",
      "outputs": [],
      "stateMutability": "nonpayable",
      "type": "function"
    },
    {
      "inputs": [
        {
          "internalType": "bytes4",
          "name": "interfaceId",
          "type": "bytes4"
        }
      ],
      "name": "supportsInterface",
      "outputs": [
        {
          "internalType": "bool",
          "name": "",
          "type": "bool"
        }
      ],
      "stateMutability": "view",
      "type": "function",
      "constant": true
    },
    {
      "inputs": [],
      "name": "symbol",
      "outputs": [
        {
          "internalType": "string",
          "name": "",
          "type": "string"
        }
      ],
      "stateMutability": "view",
      "type": "function",
      "constant": true
    },
    {
      "inputs": [],
      "name": "totalSupply",
      "outputs": [
        {
          "internalType": "uint256",
          "name": "",
          "type": "uint256"
        }
      ],
      "stateMutability": "view",
      "type": "function",
      "constant": true
    },
    {
      "inputs": [
        {
          "internalType": "address",
          "name": "to",
          "type": "address"
        },
        {
          "internalType": "uint256",
          "name": "amount",
          "type": "uint256"
        }
      ],
      "name": "transfer",
      "outputs": [
        {
          "internalType": "bool",
          "name": "",
          "type": "bool"
        }
      ],
      "stateMutability": "nonpayable",
      "type": "function"
    },
    {
      "inputs": [
        {
          "internalType": "address",
          "name": "from",
          "type": "address"
        },
        {
          "internalType": "address",
          "name": "to",
          "type": "address"
        },
        {
          "internalType": "uint256",
          "name": "amount",
          "type": "uint256"
        }
      ],
      "name": "transferFrom",
      "outputs": [
        {
          "internalType": "bool",
          "name": "",
          "type": "bool"
        }
      ],
      "stateMutability": "nonpayable",
      "type": "function"
    },
    {
      "inputs": [
        {
          "internalType": "address",
          "name": "newOwner",
          "type": "address"
        }
      ],
      "name": "transferOwnership",
      "outputs": [],
      "stateMutability": "nonpayable",
      "type": "function"
    },
    {
      "inputs": [],
      "name": "unpause",
      "outputs": [],
      "stateMutability": "nonpayable",
      "type": "function"
    },
    {
      "stateMutability": "payable",
      "type": "receive",
      "payable": true
    },
    {
      "inputs": [
        {
          "internalType": "uint256",
          "name": "value",
          "type": "uint256"
        }
      ],
      "name": "burn",
      "outputs": [],
      "stateMutability": "nonpayable",
      "type": "function"
    },
    {
      "inputs": [],
      "name": "decimals",
      "outputs": [
        {
          "internalType": "uint8",
          "name": "",
          "type": "uint8"
        }
      ],
      "stateMutability": "view",
      "type": "function",
      "constant": true
    }
  ],
  "bytecode": "0x60a06040523480156200001157600080fd5b5060405162004c6638038062004c66833981810160405281019062000037919062000e31565b6c7e37be1fec8ac79d60a16000008484818181600590805190602001906200006192919062000b6b565b5080600690805190602001906200007a92919062000b6b565b5050506000600760006101000a81548160ff021916908315150217905550620000bc6000801b620000b06200021d60201b60201c565b6200022560201b60201c565b620000fd7f9f2df0fed2c77648de5860a4cc508cd0818c85b8b8a1ab4ceeef8d981c8956a6620000f16200021d60201b60201c565b6200022560201b60201c565b6200013e7f65d7a28e3265b37a6474929f336521b332c1681b933f6cb9f3376673440d862a620001326200021d60201b60201c565b6200022560201b60201c565b50506000811162000186576040517f08c379a00000000000000000000000000000000000000000000000000000000081526004016200017d9062000f42565b60405180910390fd5b806080818152505050620001af620001a36200021d60201b60201c565b6200023b60201b60201c565b81600760156101000a81548160ff021916908360ff160217905550620001e133826200030160201b620010ab1760201c565b620002137f3c11d16cbaffd01df69ce1c404f6340ee057498f5f00246190ea54220576a848336200047060201b60201c565b5050505062001452565b600033905090565b620002378282620004a960201b60201c565b5050565b6000600760019054906101000a900473ffffffffffffffffffffffffffffffffffffffff16905081600760016101000a81548173ffffffffffffffffffffffffffffffffffffffff021916908373ffffffffffffffffffffffffffffffffffffffff1602179055508173ffffffffffffffffffffffffffffffffffffffff168173ffffffffffffffffffffffffffffffffffffffff167f8be0079c531659141344cd1fd0a4f28419497f9722a3daafe3b4186f6b6457e060405160405180910390a35050565b600073ffffffffffffffffffffffffffffffffffffffff168273ffffffffffffffffffffffffffffffffffffffff16141562000374576040517f08c379a00000000000000000000000000000000000000000000000000000000081526004016200036b9062000fb4565b60405180910390fd5b6200038860008383620004f160201b60201c565b80600460008282546200039c919062001005565b9250508190555080600260008473ffffffffffffffffffffffffffffffffffffffff1673ffffffffffffffffffffffffffffffffffffffff168152602001908152602001600020600082825401925050819055508173ffffffffffffffffffffffffffffffffffffffff16600073ffffffffffffffffffffffffffffffffffffffff167fddf252ad1be2c89b69c2b068fc378daa952ba7f163c4a11628f55a4df523b3ef8360405162000450919062001073565b60405180910390a36200046c600083836200050e60201b60201c565b5050565b62000481826200051360201b60201c565b62000492816200053260201b60201c565b620004a48383620004a960201b60201c565b505050565b620004c082826200055660201b620012031760201c565b620004ec81600160008581526020019081526020016000206200064760201b620012e31790919060201c565b505050565b620005098383836200067f60201b620013131760201c565b505050565b505050565b6000806000838152602001908152602001600020600101549050919050565b6200055381620005476200021d60201b60201c565b6200069c60201b60201c565b50565b6200056882826200074860201b60201c565b6200064357600160008084815260200190815260200160002060000160008373ffffffffffffffffffffffffffffffffffffffff1673ffffffffffffffffffffffffffffffffffffffff16815260200190815260200160002060006101000a81548160ff021916908315150217905550620005e86200021d60201b60201c565b73ffffffffffffffffffffffffffffffffffffffff168173ffffffffffffffffffffffffffffffffffffffff16837f2f8788117e7eff1d82e926ec794901d17c78024a50270940304540a733656f0d60405160405180910390a45b5050565b600062000677836000018373ffffffffffffffffffffffffffffffffffffffff1660001b620007b260201b60201c565b905092915050565b620006978383836200082c60201b620013231760201c565b505050565b620006ae82826200074860201b60201c565b6200074457620006c9816200089c60201b6200137b1760201c565b620006e48360001c6020620008d160201b620013a81760201c565b604051602001620006f79291906200117d565b6040516020818303038152906040526040517f08c379a00000000000000000000000000000000000000000000000000000000081526004016200073b919062001200565b60405180910390fd5b5050565b600080600084815260200190815260200160002060000160008373ffffffffffffffffffffffffffffffffffffffff1673ffffffffffffffffffffffffffffffffffffffff16815260200190815260200160002060009054906101000a900460ff16905092915050565b6000620007c6838362000b2c60201b60201c565b6200082157826000018290806001815401808255809150506001900390600052602060002001600090919091909150558260000180549050836001016000848152602001908152602001600020819055506001905062000826565b600090505b92915050565b6200084483838362000b4f60201b620015e41760201c565b6200085462000b5460201b60201c565b1562000897576040517f08c379a00000000000000000000000000000000000000000000000000000000081526004016200088e906200129a565b60405180910390fd5b505050565b6060620008ca8273ffffffffffffffffffffffffffffffffffffffff16601460ff16620008d160201b60201c565b9050919050565b606060006002836002620008e69190620012bc565b620008f2919062001005565b67ffffffffffffffff8111156200090e576200090d62000c4a565b5b6040519080825280601f01601f191660200182016040528015620009415781602001600182028036833780820191505090505b5090507f3000000000000000000000000000000000000000000000000000000000000000816000815181106200097c576200097b6200131d565b5b60200101907effffffffffffffffffffffffffffffffffffffffffffffffffffffffffffff1916908160001a9053507f780000000000000000000000000000000000000000000000000000000000000081600181518110620009e357620009e26200131d565b5b60200101907effffffffffffffffffffffffffffffffffffffffffffffffffffffffffffff1916908160001a9053506000600184600262000a259190620012bc565b62000a31919062001005565b90505b600181111562000adb577f3031323334353637383961626364656600000000000000000000000000000000600f86166010811062000a775762000a766200131d565b5b1a60f81b82828151811062000a915762000a906200131d565b5b60200101907effffffffffffffffffffffffffffffffffffffffffffffffffffffffffffff1916908160001a905350600485901c94508062000ad3906200134c565b905062000a34565b506000841462000b22576040517f08c379a000000000000000000000000000000000000000000000000000000000815260040162000b1990620013cb565b60405180910390fd5b8091505092915050565b600080836001016000848152602001908152602001600020541415905092915050565b505050565b6000600760009054906101000a900460ff16905090565b82805462000b79906200141c565b90600052602060002090601f01602090048101928262000b9d576000855562000be9565b82601f1062000bb857805160ff191683800117855562000be9565b8280016001018555821562000be9579182015b8281111562000be857825182559160200191906001019062000bcb565b5b50905062000bf8919062000bfc565b5090565b5b8082111562000c1757600081600090555060010162000bfd565b5090565b6000604051905090565b600080fd5b600080fd5b600080fd5b600080fd5b6000601f19601f8301169050919050565b7f4e487b7100000000000000000000000000000000000000000000000000000000600052604160045260246000fd5b62000c848262000c39565b810181811067ffffffffffffffff8211171562000ca65762000ca562000c4a565b5b80604052505050565b600062000cbb62000c1b565b905062000cc9828262000c79565b919050565b600067ffffffffffffffff82111562000cec5762000ceb62000c4a565b5b62000cf78262000c39565b9050602081019050919050565b60005b8381101562000d2457808201518184015260208101905062000d07565b8381111562000d34576000848401525b50505050565b600062000d5162000d4b8462000cce565b62000caf565b90508281526020810184848401111562000d705762000d6f62000c34565b5b62000d7d84828562000d04565b509392505050565b600082601f83011262000d9d5762000d9c62000c2f565b5b815162000daf84826020860162000d3a565b91505092915050565b600060ff82169050919050565b62000dd08162000db8565b811462000ddc57600080fd5b50565b60008151905062000df08162000dc5565b92915050565b6000819050919050565b62000e0b8162000df6565b811462000e1757600080fd5b50565b60008151905062000e2b8162000e00565b92915050565b6000806000806080858703121562000e4e5762000e4d62000c25565b5b600085015167ffffffffffffffff81111562000e6f5762000e6e62000c2a565b5b62000e7d8782880162000d85565b945050602085015167ffffffffffffffff81111562000ea15762000ea062000c2a565b5b62000eaf8782880162000d85565b935050604062000ec28782880162000ddf565b925050606062000ed58782880162000e1a565b91505092959194509250565b600082825260208201905092915050565b7f45524332304361707065643a2063617020697320300000000000000000000000600082015250565b600062000f2a60158362000ee1565b915062000f378262000ef2565b602082019050919050565b6000602082019050818103600083015262000f5d8162000f1b565b9050919050565b7f45524332303a206d696e7420746f20746865207a65726f206164647265737300600082015250565b600062000f9c601f8362000ee1565b915062000fa98262000f64565b602082019050919050565b6000602082019050818103600083015262000fcf8162000f8d565b9050919050565b7f4e487b7100000000000000000000000000000000000000000000000000000000600052601160045260246000fd5b6000620010128262000df6565b91506200101f8362000df6565b9250827fffffffffffffffffffffffffffffffffffffffffffffffffffffffffffffffff0382111562001057576200105662000fd6565b5b828201905092915050565b6200106d8162000df6565b82525050565b60006020820190506200108a600083018462001062565b92915050565b600081905092915050565b7f416363657373436f6e74726f6c3a206163636f756e7420000000000000000000600082015250565b6000620010d360178362001090565b9150620010e0826200109b565b601782019050919050565b600081519050919050565b60006200110382620010eb565b6200110f818562001090565b93506200112181856020860162000d04565b80840191505092915050565b7f206973206d697373696e6720726f6c6520000000000000000000000000000000600082015250565b60006200116560118362001090565b915062001172826200112d565b601182019050919050565b60006200118a82620010c4565b9150620011988285620010f6565b9150620011a58262001156565b9150620011b38284620010f6565b91508190509392505050565b6000620011cc82620010eb565b620011d8818562000ee1565b9350620011ea81856020860162000d04565b620011f58162000c39565b840191505092915050565b600060208201905081810360008301526200121c8184620011bf565b905092915050565b7f45524332305061757361626c653a20746f6b656e207472616e7366657220776860008201527f696c652070617573656400000000000000000000000000000000000000000000602082015250565b600062001282602a8362000ee1565b91506200128f8262001224565b604082019050919050565b60006020820190508181036000830152620012b58162001273565b9050919050565b6000620012c98262000df6565b9150620012d68362000df6565b9250817fffffffffffffffffffffffffffffffffffffffffffffffffffffffffffffffff048311821515161562001312576200131162000fd6565b5b828202905092915050565b7f4e487b7100000000000000000000000000000000000000000000000000000000600052603260045260246000fd5b6000620013598262000df6565b9150600082141562001370576200136f62000fd6565b5b600182039050919050565b7f537472696e67733a20686578206c656e67746820696e73756666696369656e74600082015250565b6000620013b360208362000ee1565b9150620013c0826200137b565b602082019050919050565b60006020820190508181036000830152620013e681620013a4565b9050919050565b7f4e487b7100000000000000000000000000000000000000000000000000000000600052602260045260246000fd5b600060028204905060018216806200143557607f821691505b602082108114156200144c576200144b620013ed565b5b50919050565b6080516137f86200146e6000396000610a0101526137f86000f3fe6080604052600436106101f25760003560e01c806370a082311161010d578063a217fddf116100a0578063d53913931161006f578063d539139314610735578063d547741f14610760578063dd62ed3e14610789578063e63ab1e9146107c6578063f2fde38b146107f1576101fc565b8063a217fddf14610653578063a457c2d71461067e578063a9059cbb146106bb578063ca15c873146106f8576101fc565b80638da5cb5b116100dc5780638da5cb5b146105835780639010d07c146105ae57806391d14854146105eb57806395d89b4114610628576101fc565b806370a08231146104ef578063715018a61461052c57806379cc6790146105435780638456cb591461056c576101fc565b8063313ce567116101855780633f4ba83a116101545780633f4ba83a1461045b57806340c10f191461047257806342966c681461049b5780635c975abb146104c4576101fc565b8063313ce5671461039f578063355274ea146103ca57806336568abe146103f5578063395093511461041e576101fc565b806323b872dd116101c157806323b872dd146102d1578063248a9ca31461030e578063282c51f31461034b5780632f2ff15d14610376576101fc565b806301ffc9a71461020157806306fdde031461023e578063095ea7b31461026957806318160ddd146102a6576101fc565b366101fc57600080fd5b600080fd5b34801561020d57600080fd5b5061022860048036038101906102239190612522565b61081a565b604051610235919061256a565b60405180910390f35b34801561024a57600080fd5b50610253610894565b604051610260919061261e565b60405180910390f35b34801561027557600080fd5b50610290600480360381019061028b91906126d4565b610926565b60405161029d919061256a565b60405180910390f35b3480156102b257600080fd5b506102bb610949565b6040516102c89190612723565b60405180910390f35b3480156102dd57600080fd5b506102f860048036038101906102f3919061273e565b610953565b604051610305919061256a565b60405180910390f35b34801561031a57600080fd5b50610335600480360381019061033091906127c7565b610982565b6040516103429190612803565b60405180910390f35b34801561035757600080fd5b506103606109a1565b60405161036d9190612803565b60405180910390f35b34801561038257600080fd5b5061039d6004803603810190610398919061281e565b6109c5565b005b3480156103ab57600080fd5b506103b46109e6565b6040516103c1919061287a565b60405180910390f35b3480156103d657600080fd5b506103df6109fd565b6040516103ec9190612723565b60405180910390f35b34801561040157600080fd5b5061041c6004803603810190610417919061281e565b610a25565b005b34801561042a57600080fd5b50610445600480360381019061044091906126d4565b610aa8565b604051610452919061256a565b60405180910390f35b34801561046757600080fd5b50610470610adf565b005b34801561047e57600080fd5b50610499600480360381019061049491906126d4565b610b59565b005b3480156104a757600080fd5b506104c260048036038101906104bd9190612895565b610bd7565b005b3480156104d057600080fd5b506104d9610c0f565b6040516104e6919061256a565b60405180910390f35b3480156104fb57600080fd5b50610516600480360381019061051191906128c2565b610c26565b6040516105239190612723565b60405180910390f35b34801561053857600080fd5b50610541610c6f565b005b34801561054f57600080fd5b5061056a600480360381019061056591906126d4565b610c83565b005b34801561057857600080fd5b50610581610ca3565b005b34801561058f57600080fd5b50610598610d1d565b6040516105a591906128fe565b60405180910390f35b3480156105ba57600080fd5b506105d560048036038101906105d09190612919565b610d47565b6040516105e291906128fe565b60405180910390f35b3480156105f757600080fd5b50610612600480360381019061060d919061281e565b610d76565b60405161061f919061256a565b60405180910390f35b34801561063457600080fd5b5061063d610de0565b60405161064a919061261e565b60405180910390f35b34801561065f57600080fd5b50610668610e72565b6040516106759190612803565b60405180910390f35b34801561068a57600080fd5b506106a560048036038101906106a091906126d4565b610e79565b6040516106b2919061256a565b60405180910390f35b3480156106c757600080fd5b506106e260048036038101906106dd91906126d4565b610ef0565b6040516106ef919061256a565b60405180910390f35b34801561070457600080fd5b5061071f600480360381019061071a91906127c7565b610f13565b60405161072c9190612723565b60405180910390f35b34801561074157600080fd5b5061074a610f37565b6040516107579190612803565b60405180910390f35b34801561076c57600080fd5b506107876004803603810190610782919061281e565b610f5b565b005b34801561079557600080fd5b506107b060048036038101906107ab9190612959565b610f7c565b6040516107bd9190612723565b60405180910390f35b3480156107d257600080fd5b506107db611003565b6040516107e89190612803565b60405180910390f35b3480156107fd57600080fd5b50610818600480360381019061081391906128c2565b611027565b005b60007f5a05180f000000000000000000000000000000000000000000000000000000007bffffffffffffffffffffffffffffffffffffffffffffffffffffffff1916827bffffffffffffffffffffffffffffffffffffffffffffffffffffffff1916148061088d575061088c826115e9565b5b9050919050565b6060600580546108a3906129c8565b80601f01602080910402602001604051908101604052809291908181526020018280546108cf906129c8565b801561091c5780601f106108f15761010080835404028352916020019161091c565b820191906000526020600020905b8154815290600101906020018083116108ff57829003601f168201915b5050505050905090565b600080610931611663565b905061093e81858561166b565b600191505092915050565b6000600454905090565b60008061095e611663565b905061096b858285611836565b6109768585856118c2565b60019150509392505050565b6000806000838152602001908152602001600020600101549050919050565b7f3c11d16cbaffd01df69ce1c404f6340ee057498f5f00246190ea54220576a84881565b6109ce82610982565b6109d781611b3d565b6109e18383611b51565b505050565b6000600760159054906101000a900460ff16905090565b60007f0000000000000000000000000000000000000000000000000000000000000000905090565b610a2d611663565b73ffffffffffffffffffffffffffffffffffffffff168173ffffffffffffffffffffffffffffffffffffffff1614610a9a576040517f08c379a0000000000000000000000000000000000000000000000000000000008152600401610a9190612a6c565b60405180910390fd5b610aa48282611b85565b5050565b600080610ab3611663565b9050610ad4818585610ac58589610f7c565b610acf9190612abb565b61166b565b600191505092915050565b610b107f65d7a28e3265b37a6474929f336521b332c1681b933f6cb9f3376673440d862a610b0b611663565b610d76565b610b4f576040517f08c379a0000000000000000000000000000000000000000000000000000000008152600401610b4690612b83565b60405180910390fd5b610b57611bb9565b565b610b8a7f9f2df0fed2c77648de5860a4cc508cd0818c85b8b8a1ab4ceeef8d981c8956a6610b85611663565b610d76565b610bc9576040517f08c379a0000000000000000000000000000000000000000000000000000000008152600401610bc090612c15565b60405180910390fd5b610bd38282611c1c565b5050565b7f3c11d16cbaffd01df69ce1c404f6340ee057498f5f00246190ea54220576a848610c0181611b3d565b610c0b3383611c2a565b5050565b6000600760009054906101000a900460ff16905090565b6000600260008373ffffffffffffffffffffffffffffffffffffffff1673ffffffffffffffffffffffffffffffffffffffff168152602001908152602001600020549050919050565b610c77611dfa565b610c816000611e78565b565b610c9582610c8f611663565b83611836565b610c9f8282611c2a565b5050565b610cd47f65d7a28e3265b37a6474929f336521b332c1681b933f6cb9f3376673440d862a610ccf611663565b610d76565b610d13576040517f08c379a0000000000000000000000000000000000000000000000000000000008152600401610d0a90612ca7565b60405180910390fd5b610d1b611f3e565b565b6000600760019054906101000a900473ffffffffffffffffffffffffffffffffffffffff16905090565b6000610d6e8260016000868152602001908152602001600020611fa190919063ffffffff16565b905092915050565b600080600084815260200190815260200160002060000160008373ffffffffffffffffffffffffffffffffffffffff1673ffffffffffffffffffffffffffffffffffffffff16815260200190815260200160002060009054906101000a900460ff16905092915050565b606060068054610def906129c8565b80601f0160208091040260200160405190810160405280929190818152602001828054610e1b906129c8565b8015610e685780601f10610e3d57610100808354040283529160200191610e68565b820191906000526020600020905b815481529060010190602001808311610e4b57829003601f168201915b5050505050905090565b6000801b81565b600080610e84611663565b90506000610e928286610f7c565b905083811015610ed7576040517f08c379a0000000000000000000000000000000000000000000000000000000008152600401610ece90612d39565b60405180910390fd5b610ee4828686840361166b565b60019250505092915050565b600080610efb611663565b9050610f088185856118c2565b600191505092915050565b6000610f3060016000848152602001908152602001600020611fbb565b9050919050565b7f9f2df0fed2c77648de5860a4cc508cd0818c85b8b8a1ab4ceeef8d981c8956a681565b610f6482610982565b610f6d81611b3d565b610f778383611b85565b505050565b6000600360008473ffffffffffffffffffffffffffffffffffffffff1673ffffffffffffffffffffffffffffffffffffffff16815260200190815260200160002060008373ffffffffffffffffffffffffffffffffffffffff1673ffffffffffffffffffffffffffffffffffffffff16815260200190815260200160002054905092915050565b7f65d7a28e3265b37a6474929f336521b332c1681b933f6cb9f3376673440d862a81565b61102f611dfa565b600073ffffffffffffffffffffffffffffffffffffffff168173ffffffffffffffffffffffffffffffffffffffff16141561109f576040517f08c379a000000000000000000000000000000000000000000000000000000000815260040161109690612dcb565b60405180910390fd5b6110a881611e78565b50565b600073ffffffffffffffffffffffffffffffffffffffff168273ffffffffffffffffffffffffffffffffffffffff16141561111b576040517f08c379a000000000000000000000000000000000000000000000000000000000815260040161111290612e37565b60405180910390fd5b61112760008383611fd0565b80600460008282546111399190612abb565b9250508190555080600260008473ffffffffffffffffffffffffffffffffffffffff1673ffffffffffffffffffffffffffffffffffffffff168152602001908152602001600020600082825401925050819055508173ffffffffffffffffffffffffffffffffffffffff16600073ffffffffffffffffffffffffffffffffffffffff167fddf252ad1be2c89b69c2b068fc378daa952ba7f163c4a11628f55a4df523b3ef836040516111eb9190612723565b60405180910390a36111ff60008383611fe0565b5050565b61120d8282610d76565b6112df57600160008084815260200190815260200160002060000160008373ffffffffffffffffffffffffffffffffffffffff1673ffffffffffffffffffffffffffffffffffffffff16815260200190815260200160002060006101000a81548160ff021916908315150217905550611284611663565b73ffffffffffffffffffffffffffffffffffffffff168173ffffffffffffffffffffffffffffffffffffffff16837f2f8788117e7eff1d82e926ec794901d17c78024a50270940304540a733656f0d60405160405180910390a45b5050565b600061130b836000018373ffffffffffffffffffffffffffffffffffffffff1660001b611fe5565b905092915050565b61131e838383611323565b505050565b61132e8383836115e4565b611336610c0f565b15611376576040517f08c379a000000000000000000000000000000000000000000000000000000000815260040161136d90612ec9565b60405180910390fd5b505050565b60606113a18273ffffffffffffffffffffffffffffffffffffffff16601460ff166113a8565b9050919050565b6060600060028360026113bb9190612ee9565b6113c59190612abb565b67ffffffffffffffff8111156113de576113dd612f43565b5b6040519080825280601f01601f1916602001820160405280156114105781602001600182028036833780820191505090505b5090507f30000000000000000000000000000000000000000000000000000000000000008160008151811061144857611447612f72565b5b60200101907effffffffffffffffffffffffffffffffffffffffffffffffffffffffffffff1916908160001a9053507f7800000000000000000000000000000000000000000000000000000000000000816001815181106114ac576114ab612f72565b5b60200101907effffffffffffffffffffffffffffffffffffffffffffffffffffffffffffff1916908160001a905350600060018460026114ec9190612ee9565b6114f69190612abb565b90505b6001811115611596577f3031323334353637383961626364656600000000000000000000000000000000600f86166010811061153857611537612f72565b5b1a60f81b82828151811061154f5761154e612f72565b5b60200101907effffffffffffffffffffffffffffffffffffffffffffffffffffffffffffff1916908160001a905350600485901c94508061158f90612fa1565b90506114f9565b50600084146115da576040517f08c379a00000000000000000000000000000000000000000000000000000000081526004016115d190613017565b60405180910390fd5b8091505092915050565b505050565b60007f7965db0b000000000000000000000000000000000000000000000000000000007bffffffffffffffffffffffffffffffffffffffffffffffffffffffff1916827bffffffffffffffffffffffffffffffffffffffffffffffffffffffff1916148061165c575061165b82612055565b5b9050919050565b600033905090565b600073ffffffffffffffffffffffffffffffffffffffff168373ffffffffffffffffffffffffffffffffffffffff1614156116db576040517f08c379a00000000000000000000000000000000000000000000000000000000081526004016116d2906130a9565b60405180910390fd5b600073ffffffffffffffffffffffffffffffffffffffff168273ffffffffffffffffffffffffffffffffffffffff16141561174b576040517f08c379a00000000000000000000000000000000000000000000000000000000081526004016117429061313b565b60405180910390fd5b80600360008573ffffffffffffffffffffffffffffffffffffffff1673ffffffffffffffffffffffffffffffffffffffff16815260200190815260200160002060008473ffffffffffffffffffffffffffffffffffffffff1673ffffffffffffffffffffffffffffffffffffffff168152602001908152602001600020819055508173ffffffffffffffffffffffffffffffffffffffff168373ffffffffffffffffffffffffffffffffffffffff167f8c5be1e5ebec7d5bd14f71427d1e84f3dd0314c0f7b2291e5b200ac8c7c3b925836040516118299190612723565b60405180910390a3505050565b60006118428484610f7c565b90507fffffffffffffffffffffffffffffffffffffffffffffffffffffffffffffffff81146118bc57818110156118ae576040517f08c379a00000000000000000000000000000000000000000000000000000000081526004016118a5906131a7565b60405180910390fd5b6118bb848484840361166b565b5b50505050565b600073ffffffffffffffffffffffffffffffffffffffff168373ffffffffffffffffffffffffffffffffffffffff161415611932576040517f08c379a000000000000000000000000000000000000000000000000000000000815260040161192990613239565b60405180910390fd5b600073ffffffffffffffffffffffffffffffffffffffff168273ffffffffffffffffffffffffffffffffffffffff1614156119a2576040517f08c379a0000000000000000000000000000000000000000000000000000000008152600401611999906132cb565b60405180910390fd5b6119ad838383611fd0565b6000600260008573ffffffffffffffffffffffffffffffffffffffff1673ffffffffffffffffffffffffffffffffffffffff16815260200190815260200160002054905081811015611a34576040517f08c379a0000000000000000000000000000000000000000000000000000000008152600401611a2b9061335d565b60405180910390fd5b818103600260008673ffffffffffffffffffffffffffffffffffffffff1673ffffffffffffffffffffffffffffffffffffffff1681526020019081526020016000208190555081600260008573ffffffffffffffffffffffffffffffffffffffff1673ffffffffffffffffffffffffffffffffffffffff168152602001908152602001600020600082825401925050819055508273ffffffffffffffffffffffffffffffffffffffff168473ffffffffffffffffffffffffffffffffffffffff167fddf252ad1be2c89b69c2b068fc378daa952ba7f163c4a11628f55a4df523b3ef84604051611b249190612723565b60405180910390a3611b37848484611fe0565b50505050565b611b4e81611b49611663565b6120bf565b50565b611b5b8282611203565b611b8081600160008581526020019081526020016000206112e390919063ffffffff16565b505050565b611b8f8282612144565b611bb4816001600085815260200190815260200160002061222590919063ffffffff16565b505050565b611bc1612255565b6000600760006101000a81548160ff0219169083151502179055507f5db9ee0a495bf2e6ff9c91a7834c1ba4fdd244a5e8aa4e537bd38aeae4b073aa611c05611663565b604051611c1291906128fe565b60405180910390a1565b611c26828261229e565b5050565b600073ffffffffffffffffffffffffffffffffffffffff168273ffffffffffffffffffffffffffffffffffffffff161415611c9a576040517f08c379a0000000000000000000000000000000000000000000000000000000008152600401611c91906133ef565b60405180910390fd5b611ca682600083611fd0565b6000600260008473ffffffffffffffffffffffffffffffffffffffff1673ffffffffffffffffffffffffffffffffffffffff16815260200190815260200160002054905081811015611d2d576040517f08c379a0000000000000000000000000000000000000000000000000000000008152600401611d2490613481565b60405180910390fd5b818103600260008573ffffffffffffffffffffffffffffffffffffffff1673ffffffffffffffffffffffffffffffffffffffff1681526020019081526020016000208190555081600460008282540392505081905550600073ffffffffffffffffffffffffffffffffffffffff168373ffffffffffffffffffffffffffffffffffffffff167fddf252ad1be2c89b69c2b068fc378daa952ba7f163c4a11628f55a4df523b3ef84604051611de19190612723565b60405180910390a3611df583600084611fe0565b505050565b611e02611663565b73ffffffffffffffffffffffffffffffffffffffff16611e20610d1d565b73ffffffffffffffffffffffffffffffffffffffff1614611e76576040517f08c379a0000000000000000000000000000000000000000000000000000000008152600401611e6d906134ed565b60405180910390fd5b565b6000600760019054906101000a900473ffffffffffffffffffffffffffffffffffffffff16905081600760016101000a81548173ffffffffffffffffffffffffffffffffffffffff021916908373ffffffffffffffffffffffffffffffffffffffff1602179055508173ffffffffffffffffffffffffffffffffffffffff168173ffffffffffffffffffffffffffffffffffffffff167f8be0079c531659141344cd1fd0a4f28419497f9722a3daafe3b4186f6b6457e060405160405180910390a35050565b611f46612308565b6001600760006101000a81548160ff0219169083151502179055507f62e78cea01bee320cd4e420270b5ea74000d11b0c9f74754ebdbfc544b05a258611f8a611663565b604051611f9791906128fe565b60405180910390a1565b6000611fb08360000183612352565b60001c905092915050565b6000611fc98260000161237d565b9050919050565b611fdb838383611313565b505050565b505050565b6000611ff1838361238e565b61204a57826000018290806001815401808255809150506001900390600052602060002001600090919091909150558260000180549050836001016000848152602001908152602001600020819055506001905061204f565b600090505b92915050565b60007f01ffc9a7000000000000000000000000000000000000000000000000000000007bffffffffffffffffffffffffffffffffffffffffffffffffffffffff1916827bffffffffffffffffffffffffffffffffffffffffffffffffffffffff1916149050919050565b6120c98282610d76565b612140576120d68161137b565b6120e48360001c60206113a8565b6040516020016120f59291906135e1565b6040516020818303038152906040526040517f08c379a0000000000000000000000000000000000000000000000000000000008152600401612137919061261e565b60405180910390fd5b5050565b61214e8282610d76565b1561222157600080600084815260200190815260200160002060000160008373ffffffffffffffffffffffffffffffffffffffff1673ffffffffffffffffffffffffffffffffffffffff16815260200190815260200160002060006101000a81548160ff0219169083151502179055506121c6611663565b73ffffffffffffffffffffffffffffffffffffffff168173ffffffffffffffffffffffffffffffffffffffff16837ff6391f5c32d9c69d2a47ea670b442974b53935d1edc7fd64eb21e047a839171b60405160405180910390a45b5050565b600061224d836000018373ffffffffffffffffffffffffffffffffffffffff1660001b6123b1565b905092915050565b61225d610c0f565b61229c576040517f08c379a000000000000000000000000000000000000000000000000000000000815260040161229390613667565b60405180910390fd5b565b6122a66109fd565b816122af610949565b6122b99190612abb565b11156122fa576040517f08c379a00000000000000000000000000000000000000000000000000000000081526004016122f1906136d3565b60405180910390fd5b61230482826110ab565b5050565b612310610c0f565b15612350576040517f08c379a00000000000000000000000000000000000000000000000000000000081526004016123479061373f565b60405180910390fd5b565b600082600001828154811061236a57612369612f72565b5b9060005260206000200154905092915050565b600081600001805490509050919050565b600080836001016000848152602001908152602001600020541415905092915050565b600080836001016000848152602001908152602001600020549050600081146124b95760006001826123e3919061375f565b90506000600186600001805490506123fb919061375f565b905081811461246a57600086600001828154811061241c5761241b612f72565b5b90600052602060002001549050808760000184815481106124405761243f612f72565b5b90600052602060002001819055508387600101600083815260200190815260200160002081905550505b8560000180548061247e5761247d613793565b5b6001900381819060005260206000200160009055905585600101600086815260200190815260200160002060009055600193505050506124bf565b60009150505b92915050565b600080fd5b60007fffffffff0000000000000000000000000000000000000000000000000000000082169050919050565b6124ff816124ca565b811461250a57600080fd5b50565b60008135905061251c816124f6565b92915050565b600060208284031215612538576125376124c5565b5b60006125468482850161250d565b91505092915050565b60008115159050919050565b6125648161254f565b82525050565b600060208201905061257f600083018461255b565b92915050565b600081519050919050565b600082825260208201905092915050565b60005b838110156125bf5780820151818401526020810190506125a4565b838111156125ce576000848401525b50505050565b6000601f19601f8301169050919050565b60006125f082612585565b6125fa8185612590565b935061260a8185602086016125a1565b612613816125d4565b840191505092915050565b6000602082019050818103600083015261263881846125e5565b905092915050565b600073ffffffffffffffffffffffffffffffffffffffff82169050919050565b600061266b82612640565b9050919050565b61267b81612660565b811461268657600080fd5b50565b60008135905061269881612672565b92915050565b6000819050919050565b6126b18161269e565b81146126bc57600080fd5b50565b6000813590506126ce816126a8565b92915050565b600080604083850312156126eb576126ea6124c5565b5b60006126f985828601612689565b925050602061270a858286016126bf565b9150509250929050565b61271d8161269e565b82525050565b60006020820190506127386000830184612714565b92915050565b600080600060608486031215612757576127566124c5565b5b600061276586828701612689565b935050602061277686828701612689565b9250506040612787868287016126bf565b9150509250925092565b6000819050919050565b6127a481612791565b81146127af57600080fd5b50565b6000813590506127c18161279b565b92915050565b6000602082840312156127dd576127dc6124c5565b5b60006127eb848285016127b2565b91505092915050565b6127fd81612791565b82525050565b600060208201905061281860008301846127f4565b92915050565b60008060408385031215612835576128346124c5565b5b6000612843858286016127b2565b925050602061285485828601612689565b9150509250929050565b600060ff82169050919050565b6128748161285e565b82525050565b600060208201905061288f600083018461286b565b92915050565b6000602082840312156128ab576128aa6124c5565b5b60006128b9848285016126bf565b91505092915050565b6000602082840312156128d8576128d76124c5565b5b60006128e684828501612689565b91505092915050565b6128f881612660565b82525050565b600060208201905061291360008301846128ef565b92915050565b600080604083850312156129305761292f6124c5565b5b600061293e858286016127b2565b925050602061294f858286016126bf565b9150509250929050565b600080604083850312156129705761296f6124c5565b5b600061297e85828601612689565b925050602061298f85828601612689565b9150509250929050565b7f4e487b7100000000000000000000000000000000000000000000000000000000600052602260045260246000fd5b600060028204905060018216806129e057607f821691505b602082108114156129f4576129f3612999565b5b50919050565b7f416363657373436f6e74726f6c3a2063616e206f6e6c792072656e6f756e636560008201527f20726f6c657320666f722073656c660000000000000000000000000000000000602082015250565b6000612a56602f83612590565b9150612a61826129fa565b604082019050919050565b60006020820190508181036000830152612a8581612a49565b9050919050565b7f4e487b7100000000000000000000000000000000000000000000000000000000600052601160045260246000fd5b6000612ac68261269e565b9150612ad18361269e565b9250827fffffffffffffffffffffffffffffffffffffffffffffffffffffffffffffffff03821115612b0657612b05612a8c565b5b828201905092915050565b7f45524332305072657365744d696e7465725061757365723a206d75737420686160008201527f76652070617573657220726f6c6520746f20756e706175736500000000000000602082015250565b6000612b6d603983612590565b9150612b7882612b11565b604082019050919050565b60006020820190508181036000830152612b9c81612b60565b9050919050565b7f45524332305072657365744d696e7465725061757365723a206d75737420686160008201527f7665206d696e74657220726f6c6520746f206d696e7400000000000000000000602082015250565b6000612bff603683612590565b9150612c0a82612ba3565b604082019050919050565b60006020820190508181036000830152612c2e81612bf2565b9050919050565b7f45524332305072657365744d696e7465725061757365723a206d75737420686160008201527f76652070617573657220726f6c6520746f207061757365000000000000000000602082015250565b6000612c91603783612590565b9150612c9c82612c35565b604082019050919050565b60006020820190508181036000830152612cc081612c84565b9050919050565b7f45524332303a2064656372656173656420616c6c6f77616e63652062656c6f7760008201527f207a65726f000000000000000000000000000000000000000000000000000000602082015250565b6000612d23602583612590565b9150612d2e82612cc7565b604082019050919050565b60006020820190508181036000830152612d5281612d16565b9050919050565b7f4f776e61626c653a206e6577206f776e657220697320746865207a65726f206160008201527f6464726573730000000000000000000000000000000000000000000000000000602082015250565b6000612db5602683612590565b9150612dc082612d59565b604082019050919050565b60006020820190508181036000830152612de481612da8565b9050919050565b7f45524332303a206d696e7420746f20746865207a65726f206164647265737300600082015250565b6000612e21601f83612590565b9150612e2c82612deb565b602082019050919050565b60006020820190508181036000830152612e5081612e14565b9050919050565b7f45524332305061757361626c653a20746f6b656e207472616e7366657220776860008201527f696c652070617573656400000000000000000000000000000000000000000000602082015250565b6000612eb3602a83612590565b9150612ebe82612e57565b604082019050919050565b60006020820190508181036000830152612ee281612ea6565b9050919050565b6000612ef48261269e565b9150612eff8361269e565b9250817fffffffffffffffffffffffffffffffffffffffffffffffffffffffffffffffff0483118215151615612f3857612f37612a8c565b5b828202905092915050565b7f4e487b7100000000000000000000000000000000000000000000000000000000600052604160045260246000fd5b7f4e487b7100000000000000000000000000000000000000000000000000000000600052603260045260246000fd5b6000612fac8261269e565b91506000821415612fc057612fbf612a8c565b5b600182039050919050565b7f537472696e67733a20686578206c656e67746820696e73756666696369656e74600082015250565b6000613001602083612590565b915061300c82612fcb565b602082019050919050565b6000602082019050818103600083015261303081612ff4565b9050919050565b7f45524332303a20617070726f76652066726f6d20746865207a65726f2061646460008201527f7265737300000000000000000000000000000000000000000000000000000000602082015250565b6000613093602483612590565b915061309e82613037565b604082019050919050565b600060208201905081810360008301526130c281613086565b9050919050565b7f45524332303a20617070726f766520746f20746865207a65726f20616464726560008201527f7373000000000000000000000000000000000000000000000000000000000000602082015250565b6000613125602283612590565b9150613130826130c9565b604082019050919050565b6000602082019050818103600083015261315481613118565b9050919050565b7f45524332303a20696e73756666696369656e7420616c6c6f77616e6365000000600082015250565b6000613191601d83612590565b915061319c8261315b565b602082019050919050565b600060208201905081810360008301526131c081613184565b9050919050565b7f45524332303a207472616e736665722066726f6d20746865207a65726f20616460008201527f6472657373000000000000000000000000000000000000000000000000000000602082015250565b6000613223602583612590565b915061322e826131c7565b604082019050919050565b6000602082019050818103600083015261325281613216565b9050919050565b7f45524332303a207472616e7366657220746f20746865207a65726f206164647260008201527f6573730000000000000000000000000000000000000000000000000000000000602082015250565b60006132b5602383612590565b91506132c082613259565b604082019050919050565b600060208201905081810360008301526132e4816132a8565b9050919050565b7f45524332303a207472616e7366657220616d6f756e742065786365656473206260008201527f616c616e63650000000000000000000000000000000000000000000000000000602082015250565b6000613347602683612590565b9150613352826132eb565b604082019050919050565b600060208201905081810360008301526133768161333a565b9050919050565b7f45524332303a206275726e2066726f6d20746865207a65726f2061646472657360008201527f7300000000000000000000000000000000000000000000000000000000000000602082015250565b60006133d9602183612590565b91506133e48261337d565b604082019050919050565b60006020820190508181036000830152613408816133cc565b9050919050565b7f45524332303a206275726e20616d6f756e7420657863656564732062616c616e60008201527f6365000000000000000000000000000000000000000000000000000000000000602082015250565b600061346b602283612590565b91506134768261340f565b604082019050919050565b6000602082019050818103600083015261349a8161345e565b9050919050565b7f4f776e61626c653a2063616c6c6572206973206e6f7420746865206f776e6572600082015250565b60006134d7602083612590565b91506134e2826134a1565b602082019050919050565b60006020820190508181036000830152613506816134ca565b9050919050565b600081905092915050565b7f416363657373436f6e74726f6c3a206163636f756e7420000000000000000000600082015250565b600061354e60178361350d565b915061355982613518565b601782019050919050565b600061356f82612585565b613579818561350d565b93506135898185602086016125a1565b80840191505092915050565b7f206973206d697373696e6720726f6c6520000000000000000000000000000000600082015250565b60006135cb60118361350d565b91506135d682613595565b601182019050919050565b60006135ec82613541565b91506135f88285613564565b9150613603826135be565b915061360f8284613564565b91508190509392505050565b7f5061757361626c653a206e6f7420706175736564000000000000000000000000600082015250565b6000613651601483612590565b915061365c8261361b565b602082019050919050565b6000602082019050818103600083015261368081613644565b9050919050565b7f45524332304361707065643a2063617020657863656564656400000000000000600082015250565b60006136bd601983612590565b91506136c882613687565b602082019050919050565b600060208201905081810360008301526136ec816136b0565b9050919050565b7f5061757361626c653a2070617573656400000000000000000000000000000000600082015250565b6000613729601083612590565b9150613734826136f3565b602082019050919050565b600060208201905081810360008301526137588161371c565b9050919050565b600061376a8261269e565b91506137758361269e565b92508282101561378857613787612a8c565b5b828203905092915050565b7f4e487b7100000000000000000000000000000000000000000000000000000000600052603160045260246000fdfea26469706673582212208d2e7f33abd4942aa67f7fb21c76cf2c84af221193b2ca5632502874377b7cb464736f6c634300080a0033",
  "immutableReferences": {
    "1476": [
      {
        "length": 32,
        "start": 2561
      }
    ]
  },
  "source": "// SPDX-License-Identifier: MIT\r\npragma solidity ^0.8.9;\r\nimport \"@openzeppelin/contracts/token/ERC20/ERC20.sol\";\r\nimport \"@openzeppelin/contracts/access/Ownable.sol\";\r\nimport \"@openzeppelin/contracts/token/ERC20/presets/ERC20PresetMinterPauser.sol\";\r\nimport \"@openzeppelin/contracts/token/ERC20/extensions/ERC20Capped.sol\";\r\ncontract LoyaltyToken is ERC20PresetMinterPauser , ERC20Capped,Ownable{\r\n  bytes32 public constant BURNER_ROLE = keccak256(\"BURNER_ROLE\");\r\n  uint8   private _decimals ;\r\n\r\n  constructor (  string memory _name, \r\n        string memory _symbol,\r\n        uint8 decimals_points, \r\n        uint256 _initialSupply) ERC20PresetMinterPauser(_name, _symbol)  ERC20Capped(999999999900000000000000000000 * 10**1){\r\n        _decimals = decimals_points;\r\n        ERC20._mint(msg.sender, _initialSupply);    \r\n        grantRole(BURNER_ROLE, msg.sender);\r\n    }\r\n    \r\n   function _beforeTokenTransfer(\r\n    address from,\r\n    address to,\r\n    uint256 amount\r\n  ) internal virtual override(ERC20, ERC20PresetMinterPauser) {\r\n    super._beforeTokenTransfer(from, to, amount);\r\n  }\r\n\r\n  function burn(uint256 value) public onlyRole(BURNER_ROLE) override {\r\n        super._burn(msg.sender, value);\r\n  }\r\n    \r\n  function _mint(address to, uint256 amount) internal virtual override(ERC20, ERC20Capped) {\r\n    ERC20Capped._mint(to, amount);\r\n  }\r\n\r\n  function decimals() public view override returns (uint8) {\r\n        return _decimals;\r\n\t}\r\n\r\n  fallback() external payable { revert(); }\r\n\r\n  receive() external payable {  revert(); }\r\n\r\n}",
  "sourcePath": "D:\\nodejs-ecommerce-tut\\mern-ecommerce-v2\\Ecommerce-ProShop\\proshop_mern\\blockchain\\contracts\\LoyaltyToken.sol",
  "compiler": {
    "name": "solc",
    "version": "0.8.10+commit.fc410830.Emscripten.clang"
  },
  "schemaVersion": "3.4.4",
  "updatedAt": "2022-11-22T04:50:03.611Z",
  "networkType": "ethereum",
  "devdoc": {
    "kind": "dev",
    "methods": {
      "allowance(address,address)": {
        "details": "See {IERC20-allowance}."
      },
      "approve(address,uint256)": {
        "details": "See {IERC20-approve}. NOTE: If `amount` is the maximum `uint256`, the allowance is not updated on `transferFrom`. This is semantically equivalent to an infinite approval. Requirements: - `spender` cannot be the zero address."
      },
      "balanceOf(address)": {
        "details": "See {IERC20-balanceOf}."
      },
      "burnFrom(address,uint256)": {
        "details": "Destroys `amount` tokens from `account`, deducting from the caller's allowance. See {ERC20-_burn} and {ERC20-allowance}. Requirements: - the caller must have allowance for ``accounts``'s tokens of at least `amount`."
      },
      "cap()": {
        "details": "Returns the cap on the token's total supply."
      },
      "decimals()": {
        "details": "Returns the number of decimals used to get its user representation. For example, if `decimals` equals `2`, a balance of `505` tokens should be displayed to a user as `5.05` (`505 / 10 ** 2`). Tokens usually opt for a value of 18, imitating the relationship between Ether and Wei. This is the value {ERC20} uses, unless this function is overridden; NOTE: This information is only used for _display_ purposes: it in no way affects any of the arithmetic of the contract, including {IERC20-balanceOf} and {IERC20-transfer}."
      },
      "decreaseAllowance(address,uint256)": {
        "details": "Atomically decreases the allowance granted to `spender` by the caller. This is an alternative to {approve} that can be used as a mitigation for problems described in {IERC20-approve}. Emits an {Approval} event indicating the updated allowance. Requirements: - `spender` cannot be the zero address. - `spender` must have allowance for the caller of at least `subtractedValue`."
      },
      "getRoleAdmin(bytes32)": {
        "details": "Returns the admin role that controls `role`. See {grantRole} and {revokeRole}. To change a role's admin, use {_setRoleAdmin}."
      },
      "getRoleMember(bytes32,uint256)": {
        "details": "Returns one of the accounts that have `role`. `index` must be a value between 0 and {getRoleMemberCount}, non-inclusive. Role bearers are not sorted in any particular way, and their ordering may change at any point. WARNING: When using {getRoleMember} and {getRoleMemberCount}, make sure you perform all queries on the same block. See the following https://forum.openzeppelin.com/t/iterating-over-elements-on-enumerableset-in-openzeppelin-contracts/2296[forum post] for more information."
      },
      "getRoleMemberCount(bytes32)": {
        "details": "Returns the number of accounts that have `role`. Can be used together with {getRoleMember} to enumerate all bearers of a role."
      },
      "grantRole(bytes32,address)": {
        "details": "Grants `role` to `account`. If `account` had not been already granted `role`, emits a {RoleGranted} event. Requirements: - the caller must have ``role``'s admin role. May emit a {RoleGranted} event."
      },
      "hasRole(bytes32,address)": {
        "details": "Returns `true` if `account` has been granted `role`."
      },
      "increaseAllowance(address,uint256)": {
        "details": "Atomically increases the allowance granted to `spender` by the caller. This is an alternative to {approve} that can be used as a mitigation for problems described in {IERC20-approve}. Emits an {Approval} event indicating the updated allowance. Requirements: - `spender` cannot be the zero address."
      },
      "mint(address,uint256)": {
        "details": "Creates `amount` new tokens for `to`. See {ERC20-_mint}. Requirements: - the caller must have the `MINTER_ROLE`."
      },
      "name()": {
        "details": "Returns the name of the token."
      },
      "owner()": {
        "details": "Returns the address of the current owner."
      },
      "pause()": {
        "details": "Pauses all token transfers. See {ERC20Pausable} and {Pausable-_pause}. Requirements: - the caller must have the `PAUSER_ROLE`."
      },
      "paused()": {
        "details": "Returns true if the contract is paused, and false otherwise."
      },
      "renounceOwnership()": {
        "details": "Leaves the contract without owner. It will not be possible to call `onlyOwner` functions anymore. Can only be called by the current owner. NOTE: Renouncing ownership will leave the contract without an owner, thereby removing any functionality that is only available to the owner."
      },
      "renounceRole(bytes32,address)": {
        "details": "Revokes `role` from the calling account. Roles are often managed via {grantRole} and {revokeRole}: this function's purpose is to provide a mechanism for accounts to lose their privileges if they are compromised (such as when a trusted device is misplaced). If the calling account had been revoked `role`, emits a {RoleRevoked} event. Requirements: - the caller must be `account`. May emit a {RoleRevoked} event."
      },
      "revokeRole(bytes32,address)": {
        "details": "Revokes `role` from `account`. If `account` had been granted `role`, emits a {RoleRevoked} event. Requirements: - the caller must have ``role``'s admin role. May emit a {RoleRevoked} event."
      },
      "supportsInterface(bytes4)": {
        "details": "See {IERC165-supportsInterface}."
      },
      "symbol()": {
        "details": "Returns the symbol of the token, usually a shorter version of the name."
      },
      "totalSupply()": {
        "details": "See {IERC20-totalSupply}."
      },
      "transfer(address,uint256)": {
        "details": "See {IERC20-transfer}. Requirements: - `to` cannot be the zero address. - the caller must have a balance of at least `amount`."
      },
      "transferFrom(address,address,uint256)": {
        "details": "See {IERC20-transferFrom}. Emits an {Approval} event indicating the updated allowance. This is not required by the EIP. See the note at the beginning of {ERC20}. NOTE: Does not update the allowance if the current allowance is the maximum `uint256`. Requirements: - `from` and `to` cannot be the zero address. - `from` must have a balance of at least `amount`. - the caller must have allowance for ``from``'s tokens of at least `amount`."
      },
      "transferOwnership(address)": {
        "details": "Transfers ownership of the contract to a new account (`newOwner`). Can only be called by the current owner."
      },
      "unpause()": {
        "details": "Unpauses all token transfers. See {ERC20Pausable} and {Pausable-_unpause}. Requirements: - the caller must have the `PAUSER_ROLE`."
      }
    },
    "version": 1
  },
  "userdoc": {
    "kind": "user",
    "methods": {},
    "version": 1
  }
}